:020000020000FC
:0200000020C01E
:100040003EC025E025BD21E020936E007894209AE3
:10005000219A219A219A08E00093000109E0009377
:10006000010108EE0093020100ED00930301289ABC
:100070001CE321D020D028981CE31DD01CD0299A45
:100080001CE319D029981CE316D0299A1CE313D03D
:1000900012D029981CE30FD00ED038EB3093040116
:1000A000299A1CE308D007D006D029981CE303D076
:1000B00002D001D0FFCF00270117F1F70895039573
:0800C0000D3309F40027189527
:00000001FF
