:020000020000FC
:0200000020C01E
:100040003EC025E025BD21E020936E007894249ADF
:10005000229A219A249A229A219A249A229A219ABF
:100060000CE0009300010AE00093010109E0009315
:10007000020108EE009303012C9A2A9A299A1CE3A4
:100080001AD02C982A9829981CE315D02C9A2A9AD1
:10009000299A1CE310D02C982A9829981CE30BD09D
:1000A0002C9A2A9A299A1CE306D02C982A982998E7
:1000B0001CE301D0FFCF00270117F1F70895039546
:0800C0000D3309F40027189527
:00000001FF
